{
  "contractName": "VendingMachine",
  "abi": [
    {
      "inputs": [
        {
          "internalType": "uint256",
          "name": "_initialDonutBalance",
          "type": "uint256"
        },
        {
          "internalType": "uint256",
          "name": "_donutPrice",
          "type": "uint256"
        }
      ],
      "stateMutability": "nonpayable",
      "type": "constructor"
    },
    {
      "anonymous": false,
      "inputs": [
        {
          "indexed": true,
          "internalType": "address",
          "name": "buyer",
          "type": "address"
        },
        {
          "indexed": false,
          "internalType": "uint256",
          "name": "amountPaid",
          "type": "uint256"
        },
        {
          "indexed": false,
          "internalType": "uint256",
          "name": "donutsReceived",
          "type": "uint256"
        }
      ],
      "name": "DonutPurchased",
      "type": "event"
    },
    {
      "anonymous": false,
      "inputs": [
        {
          "indexed": false,
          "internalType": "uint256",
          "name": "amount",
          "type": "uint256"
        }
      ],
      "name": "Restocked",
      "type": "event"
    },
    {
      "inputs": [
        {
          "internalType": "address",
          "name": "",
          "type": "address"
        }
      ],
      "name": "donutBalances",
      "outputs": [
        {
          "internalType": "uint256",
          "name": "",
          "type": "uint256"
        }
      ],
      "stateMutability": "view",
      "type": "function"
    },
    {
      "inputs": [],
      "name": "donutPrice",
      "outputs": [
        {
          "internalType": "uint256",
          "name": "",
          "type": "uint256"
        }
      ],
      "stateMutability": "view",
      "type": "function"
    },
    {
      "inputs": [],
      "name": "initialDonutBalance",
      "outputs": [
        {
          "internalType": "uint256",
          "name": "",
          "type": "uint256"
        }
      ],
      "stateMutability": "view",
      "type": "function"
    },
    {
      "inputs": [],
      "name": "owner",
      "outputs": [
        {
          "internalType": "address",
          "name": "",
          "type": "address"
        }
      ],
      "stateMutability": "view",
      "type": "function"
    },
    {
      "inputs": [],
      "name": "getVendingMachineBalance",
      "outputs": [
        {
          "internalType": "uint256",
          "name": "",
          "type": "uint256"
        }
      ],
      "stateMutability": "view",
      "type": "function"
    },
    {
      "inputs": [
        {
          "internalType": "uint256",
          "name": "amount",
          "type": "uint256"
        }
      ],
      "name": "purchase",
      "outputs": [],
      "stateMutability": "payable",
      "type": "function"
    },
    {
      "inputs": [
        {
          "internalType": "uint256",
          "name": "amount",
          "type": "uint256"
        }
      ],
      "name": "restock",
      "outputs": [],
      "stateMutability": "nonpayable",
      "type": "function"
    },
    {
      "inputs": [],
      "name": "withdrawFunds",
      "outputs": [],
      "stateMutability": "nonpayable",
      "type": "function"
    }
  ],
  "bytecode": "0x608060405234801561001057600080fd5b50604051610bb5380380610bb5833981810160405281019061003291906100e0565b336000806101000a81548173ffffffffffffffffffffffffffffffffffffffff021916908373ffffffffffffffffffffffffffffffffffffffff160217905550816001819055508060028190555081600360003073ffffffffffffffffffffffffffffffffffffffff1673ffffffffffffffffffffffffffffffffffffffff16815260200190815260200160002081905550505061013d565b6000815190506100da81610126565b92915050565b600080604083850312156100f357600080fd5b6000610101858286016100cb565b9250506020610112858286016100cb565b9150509250929050565b6000819050919050565b61012f8161011c565b811461013a57600080fd5b50565b610a698061014c6000396000f3fe60806040526004361061007b5760003560e01c8063c21a702a1161004e578063c21a702a1461012a578063e31e8f1514610153578063e7644d341461017e578063efef39a1146101a95761007b565b806324600fc31461008057806340891d2f146100975780638da5cb5b146100c25780639a020d8a146100ed575b600080fd5b34801561008c57600080fd5b506100956101c5565b005b3480156100a357600080fd5b506100ac6102bc565b6040516100b99190610861565b60405180910390f35b3480156100ce57600080fd5b506100d76102c2565b6040516100e491906107e6565b60405180910390f35b3480156100f957600080fd5b50610114600480360381019061010f919061066a565b6102e6565b6040516101219190610861565b60405180910390f35b34801561013657600080fd5b50610151600480360381019061014c9190610693565b6102fe565b005b34801561015f57600080fd5b5061016861041c565b6040516101759190610861565b60405180910390f35b34801561018a57600080fd5b50610193610422565b6040516101a09190610861565b60405180910390f35b6101c360048036038101906101be9190610693565b610469565b005b60008054906101000a900473ffffffffffffffffffffffffffffffffffffffff1673ffffffffffffffffffffffffffffffffffffffff163373ffffffffffffffffffffffffffffffffffffffff1614610253576040517f08c379a000000000000000000000000000000000000000000000000000000000815260040161024a90610801565b60405180910390fd5b60008054906101000a900473ffffffffffffffffffffffffffffffffffffffff1673ffffffffffffffffffffffffffffffffffffffff166108fc479081150290604051600060405180830381858888f193505050501580156102b9573d6000803e3d6000fd5b50565b60015481565b60008054906101000a900473ffffffffffffffffffffffffffffffffffffffff1681565b60036020528060005260406000206000915090505481565b60008054906101000a900473ffffffffffffffffffffffffffffffffffffffff1673ffffffffffffffffffffffffffffffffffffffff163373ffffffffffffffffffffffffffffffffffffffff161461038c576040517f08c379a000000000000000000000000000000000000000000000000000000000815260040161038390610801565b60405180910390fd5b80600360003073ffffffffffffffffffffffffffffffffffffffff1673ffffffffffffffffffffffffffffffffffffffff16815260200190815260200160002060008282546103db91906108b6565b925050819055507f66db00615752442619259f717fb732daf1fc2f71b65ff12fd91154c5249711c2816040516104119190610861565b60405180910390a150565b60025481565b6000600360003073ffffffffffffffffffffffffffffffffffffffff1673ffffffffffffffffffffffffffffffffffffffff16815260200190815260200160002054905090565b600060025482610479919061090c565b9050803410156104be576040517f08c379a00000000000000000000000000000000000000000000000000000000081526004016104b590610841565b60405180910390fd5b81600360003073ffffffffffffffffffffffffffffffffffffffff1673ffffffffffffffffffffffffffffffffffffffff168152602001908152602001600020541015610540576040517f08c379a000000000000000000000000000000000000000000000000000000000815260040161053790610821565b60405180910390fd5b81600360003073ffffffffffffffffffffffffffffffffffffffff1673ffffffffffffffffffffffffffffffffffffffff168152602001908152602001600020600082825461058f9190610966565b9250508190555081600360003373ffffffffffffffffffffffffffffffffffffffff1673ffffffffffffffffffffffffffffffffffffffff16815260200190815260200160002060008282546105e591906108b6565b925050819055503373ffffffffffffffffffffffffffffffffffffffff167f18ad439fe009706203be7083886375c875ad57e0497586dfe79d20ae662c59df348460405161063492919061087c565b60405180910390a25050565b60008135905061064f81610a05565b92915050565b60008135905061066481610a1c565b92915050565b60006020828403121561067c57600080fd5b600061068a84828501610640565b91505092915050565b6000602082840312156106a557600080fd5b60006106b384828501610655565b91505092915050565b6106c58161099a565b82525050565b60006106d86026836108a5565b91507f4f6e6c7920746865206f776e65722063616e20706572666f726d20746869732060008301527f616374696f6e00000000000000000000000000000000000000000000000000006020830152604082019050919050565b600061073e602a836108a5565b91507f496e73756666696369656e7420646f6e75747320696e207468652076656e646960008301527f6e67206d616368696e65000000000000000000000000000000000000000000006020830152604082019050919050565b60006107a46017836108a5565b91507f496e73756666696369656e742066756e64732073656e740000000000000000006000830152602082019050919050565b6107e0816109cc565b82525050565b60006020820190506107fb60008301846106bc565b92915050565b6000602082019050818103600083015261081a816106cb565b9050919050565b6000602082019050818103600083015261083a81610731565b9050919050565b6000602082019050818103600083015261085a81610797565b9050919050565b600060208201905061087660008301846107d7565b92915050565b600060408201905061089160008301856107d7565b61089e60208301846107d7565b9392505050565b600082825260208201905092915050565b60006108c1826109cc565b91506108cc836109cc565b9250827fffffffffffffffffffffffffffffffffffffffffffffffffffffffffffffffff03821115610901576109006109d6565b5b828201905092915050565b6000610917826109cc565b9150610922836109cc565b9250817fffffffffffffffffffffffffffffffffffffffffffffffffffffffffffffffff048311821515161561095b5761095a6109d6565b5b828202905092915050565b6000610971826109cc565b915061097c836109cc565b92508282101561098f5761098e6109d6565b5b828203905092915050565b60006109a5826109ac565b9050919050565b600073ffffffffffffffffffffffffffffffffffffffff82169050919050565b6000819050919050565b7f4e487b7100000000000000000000000000000000000000000000000000000000600052601160045260246000fd5b610a0e8161099a565b8114610a1957600080fd5b50565b610a25816109cc565b8114610a3057600080fd5b5056fea2646970667358221220e07e112ad7f7022b01e5040224d63a3d7818b18378feb0e1a806c132212c35af64736f6c63430008000033",
  "immutableReferences": {},
  "source": "// SPDX-License-Identifier: MIT\npragma solidity ^0.8.0;\n\ncontract VendingMachine {\n    address public owner;\n    uint public initialDonutBalance;\n    uint public donutPrice;\n    mapping(address => uint) public donutBalances;\n\n    event DonutPurchased(address indexed buyer, uint amountPaid, uint donutsReceived);\n    event Restocked(uint amount);\n\n    constructor(uint _initialDonutBalance, uint _donutPrice) {\n        owner = msg.sender;\n        initialDonutBalance = _initialDonutBalance;\n        donutPrice = _donutPrice;\n        donutBalances[address(this)] = _initialDonutBalance;\n    }\n\n    modifier onlyOwner() {\n        require(msg.sender == owner, \"Only the owner can perform this action\");\n        _;\n    }\n\n    function getVendingMachineBalance() public view returns (uint) {\n        return donutBalances[address(this)];\n    }\n\n    function purchase(uint amount) public payable {\n        uint totalCost = amount * donutPrice;\n        require(msg.value >= totalCost, \"Insufficient funds sent\");\n        require(donutBalances[address(this)] >= amount, \"Insufficient donuts in the vending machine\");\n\n        donutBalances[address(this)] -= amount;\n        donutBalances[msg.sender] += amount;\n\n        emit DonutPurchased(msg.sender, msg.value, amount);\n    }\n\n    function restock(uint amount) public onlyOwner {\n        donutBalances[address(this)] += amount;\n\n        emit Restocked(amount);\n    }\n\n    function withdrawFunds() public onlyOwner {\n        payable(owner).transfer(address(this).balance);\n    }\n}\n",
  "sourcePath": "/Users/farazsaeed/Vending_Machine/contracts/VendingMachine.sol",
  "compiler": {
    "name": "solc",
    "version": "0.8.0+commit.c7dfd78e.Emscripten.clang"
  },
  "schemaVersion": "3.4.16",
  "updatedAt": "2024-08-13T18:46:52.115Z",
  "devdoc": {
    "kind": "dev",
    "methods": {},
    "version": 1
  },
  "userdoc": {
    "kind": "user",
    "methods": {},
    "version": 1
  }
}